{
  "contractName": "CryptoWall",
  "abi": [
    {
      "inputs": [],
      "stateMutability": "nonpayable",
      "type": "constructor"
    },
    {
      "inputs": [],
      "name": "owner",
      "outputs": [
        {
          "internalType": "address",
          "name": "",
          "type": "address"
        }
      ],
      "stateMutability": "view",
      "type": "function",
      "constant": true
    },
    {
      "inputs": [],
      "name": "resetMessages",
      "outputs": [],
      "stateMutability": "nonpayable",
      "type": "function"
    },
    {
      "inputs": [
        {
          "internalType": "string",
          "name": "_message",
          "type": "string"
        },
        {
          "internalType": "string",
          "name": "_publishDate",
          "type": "string"
        }
      ],
      "name": "setMsg",
      "outputs": [],
      "stateMutability": "nonpayable",
      "type": "function"
    },
    {
      "inputs": [],
      "name": "getMessagesSize",
      "outputs": [
        {
          "internalType": "uint256",
          "name": "count",
          "type": "uint256"
        }
      ],
      "stateMutability": "view",
      "type": "function",
      "constant": true
    },
    {
      "inputs": [],
      "name": "getAll",
      "outputs": [
        {
          "components": [
            {
              "internalType": "address",
              "name": "_address",
              "type": "address"
            },
            {
              "internalType": "string",
              "name": "message",
              "type": "string"
            },
            {
              "internalType": "string",
              "name": "publishDate",
              "type": "string"
            }
          ],
          "internalType": "struct CryptoWall.Message[]",
          "name": "",
          "type": "tuple[]"
        }
      ],
      "stateMutability": "view",
      "type": "function",
      "constant": true
    },
    {
      "inputs": [
        {
          "internalType": "uint256",
          "name": "_index",
          "type": "uint256"
        }
      ],
      "name": "getMsg",
      "outputs": [
        {
          "components": [
            {
              "internalType": "address",
              "name": "_address",
              "type": "address"
            },
            {
              "internalType": "string",
              "name": "message",
              "type": "string"
            },
            {
              "internalType": "string",
              "name": "publishDate",
              "type": "string"
            }
          ],
          "internalType": "struct CryptoWall.Message",
          "name": "",
          "type": "tuple"
        }
      ],
      "stateMutability": "view",
      "type": "function",
      "constant": true
    },
    {
      "inputs": [],
      "name": "getOwner",
      "outputs": [
        {
          "internalType": "address",
          "name": "",
          "type": "address"
        }
      ],
      "stateMutability": "view",
      "type": "function",
      "constant": true
    }
  ],
  "bytecode": "0x608060405234801561001057600080fd5b50336000806101000a81548173ffffffffffffffffffffffffffffffffffffffff021916908373ffffffffffffffffffffffffffffffffffffffff160217905550610df2806100606000396000f3fe608060405234801561001057600080fd5b506004361061007d5760003560e01c80637320cacc1161005b5780637320cacc146100ec578063893d20e81461010a5780638da5cb5b1461012857806398f145b8146101465761007d565b80632b82735b1461008257806353ed5143146100b257806367f6ea68146100d0575b600080fd5b61009c60048036038101906100979190610923565b610150565b6040516100a99190610b2a565b60405180910390f35b6100ba610306565b6040516100c79190610b08565b60405180910390f35b6100ea60048036038101906100e591906108ab565b6104df565b005b6100f46105c8565b6040516101019190610b4c565b60405180910390f35b6101126105d5565b60405161011f9190610aed565b60405180910390f35b6101306105fe565b60405161013d9190610aed565b60405180910390f35b61014e610622565b005b61015861068a565b6001828154811061016c5761016b610d22565b5b90600052602060002090600302016040518060600160405290816000820160009054906101000a900473ffffffffffffffffffffffffffffffffffffffff1673ffffffffffffffffffffffffffffffffffffffff1673ffffffffffffffffffffffffffffffffffffffff1681526020016001820180546101eb90610c90565b80601f016020809104026020016040519081016040528092919081815260200182805461021790610c90565b80156102645780601f1061023957610100808354040283529160200191610264565b820191906000526020600020905b81548152906001019060200180831161024757829003601f168201915b5050505050815260200160028201805461027d90610c90565b80601f01602080910402602001604051908101604052809291908181526020018280546102a990610c90565b80156102f65780601f106102cb576101008083540402835291602001916102f6565b820191906000526020600020905b8154815290600101906020018083116102d957829003601f168201915b5050505050815250509050919050565b60606001805480602002602001604051908101604052809291908181526020016000905b828210156104d657838290600052602060002090600302016040518060600160405290816000820160009054906101000a900473ffffffffffffffffffffffffffffffffffffffff1673ffffffffffffffffffffffffffffffffffffffff1673ffffffffffffffffffffffffffffffffffffffff1681526020016001820180546103b390610c90565b80601f01602080910402602001604051908101604052809291908181526020018280546103df90610c90565b801561042c5780601f106104015761010080835404028352916020019161042c565b820191906000526020600020905b81548152906001019060200180831161040f57829003601f168201915b5050505050815260200160028201805461044590610c90565b80601f016020809104026020016040519081016040528092919081815260200182805461047190610c90565b80156104be5780601f10610493576101008083540402835291602001916104be565b820191906000526020600020905b8154815290600101906020018083116104a157829003601f168201915b5050505050815250508152602001906001019061032a565b50505050905090565b600060405180606001604052803373ffffffffffffffffffffffffffffffffffffffff168152602001848152602001838152509050600181908060018154018082558091505060019003906000526020600020906003020160009091909190915060008201518160000160006101000a81548173ffffffffffffffffffffffffffffffffffffffff021916908373ffffffffffffffffffffffffffffffffffffffff16021790555060208201518160010190805190602001906105a39291906106c1565b5060408201518160020190805190602001906105c09291906106c1565b505050505050565b6000600180549050905090565b60008060009054906101000a900473ffffffffffffffffffffffffffffffffffffffff16905090565b60008054906101000a900473ffffffffffffffffffffffffffffffffffffffff1681565b60008054906101000a900473ffffffffffffffffffffffffffffffffffffffff1673ffffffffffffffffffffffffffffffffffffffff163373ffffffffffffffffffffffffffffffffffffffff161461067a57600080fd5b600160006106889190610747565b565b6040518060600160405280600073ffffffffffffffffffffffffffffffffffffffff16815260200160608152602001606081525090565b8280546106cd90610c90565b90600052602060002090601f0160209004810192826106ef5760008555610736565b82601f1061070857805160ff1916838001178555610736565b82800160010185558215610736579182015b8281111561073557825182559160200191906001019061071a565b5b509050610743919061076b565b5090565b50805460008255600302906000526020600020908101906107689190610788565b50565b5b8082111561078457600081600090555060010161076c565b5090565b5b808211156107e257600080820160006101000a81549073ffffffffffffffffffffffffffffffffffffffff02191690556001820160006107c991906107e6565b6002820160006107d991906107e6565b50600301610789565b5090565b5080546107f290610c90565b6000825580601f106108045750610823565b601f016020900490600052602060002090810190610822919061076b565b5b50565b600061083961083484610b8c565b610b67565b90508281526020810184848401111561085557610854610d85565b5b610860848285610c4e565b509392505050565b600082601f83011261087d5761087c610d80565b5b813561088d848260208601610826565b91505092915050565b6000813590506108a581610da5565b92915050565b600080604083850312156108c2576108c1610d8f565b5b600083013567ffffffffffffffff8111156108e0576108df610d8a565b5b6108ec85828601610868565b925050602083013567ffffffffffffffff81111561090d5761090c610d8a565b5b61091985828601610868565b9150509250929050565b60006020828403121561093957610938610d8f565b5b600061094784828501610896565b91505092915050565b600061095c8383610a30565b905092915050565b61096d81610c12565b82525050565b61097c81610c12565b82525050565b600061098d82610bcd565b6109978185610bf0565b9350836020820285016109a985610bbd565b8060005b858110156109e557848403895281516109c68582610950565b94506109d183610be3565b925060208a019950506001810190506109ad565b50829750879550505050505092915050565b6000610a0282610bd8565b610a0c8185610c01565b9350610a1c818560208601610c5d565b610a2581610d94565b840191505092915050565b6000606083016000830151610a486000860182610964565b5060208301518482036020860152610a6082826109f7565b91505060408301518482036040860152610a7a82826109f7565b9150508091505092915050565b6000606083016000830151610a9f6000860182610964565b5060208301518482036020860152610ab782826109f7565b91505060408301518482036040860152610ad182826109f7565b9150508091505092915050565b610ae781610c44565b82525050565b6000602082019050610b026000830184610973565b92915050565b60006020820190508181036000830152610b228184610982565b905092915050565b60006020820190508181036000830152610b448184610a87565b905092915050565b6000602082019050610b616000830184610ade565b92915050565b6000610b71610b82565b9050610b7d8282610cc2565b919050565b6000604051905090565b600067ffffffffffffffff821115610ba757610ba6610d51565b5b610bb082610d94565b9050602081019050919050565b6000819050602082019050919050565b600081519050919050565b600081519050919050565b6000602082019050919050565b600082825260208201905092915050565b600082825260208201905092915050565b6000610c1d82610c24565b9050919050565b600073ffffffffffffffffffffffffffffffffffffffff82169050919050565b6000819050919050565b82818337600083830152505050565b60005b83811015610c7b578082015181840152602081019050610c60565b83811115610c8a576000848401525b50505050565b60006002820490506001821680610ca857607f821691505b60208210811415610cbc57610cbb610cf3565b5b50919050565b610ccb82610d94565b810181811067ffffffffffffffff82111715610cea57610ce9610d51565b5b80604052505050565b7f4e487b7100000000000000000000000000000000000000000000000000000000600052602260045260246000fd5b7f4e487b7100000000000000000000000000000000000000000000000000000000600052603260045260246000fd5b7f4e487b7100000000000000000000000000000000000000000000000000000000600052604160045260246000fd5b600080fd5b600080fd5b600080fd5b600080fd5b6000601f19601f8301169050919050565b610dae81610c44565b8114610db957600080fd5b5056fea26469706673582212207f236b17181cffd0a1f9dae5d3c1e82766c295fa85aaa41a414e9c61c8637efe64736f6c63430008070033",
  "immutableReferences": {},
  "source": "// SPDX-License-Identifier: MIT\r\npragma solidity >=0.8.7;\r\npragma experimental ABIEncoderV2;\r\n\r\ncontract CryptoWall {\r\n    struct Message {\r\n        address _address;\r\n        string message;\r\n        string publishDate;\r\n    }\r\n\r\n    address public owner;\r\n    Message[] private messages;\r\n\r\n    constructor() {\r\n        owner = msg.sender;\r\n    }\r\n\r\n    function resetMessages() public {\r\n        require(msg.sender == owner);\r\n        delete messages;\r\n    }\r\n\r\n    function setMsg(string memory _message, string memory _publishDate) public {\r\n        Message memory _msg = Message(msg.sender, _message, _publishDate);\r\n        messages.push(_msg);\r\n    }\r\n\r\n    function getMessagesSize() external view returns (uint256 count) {\r\n        return messages.length;\r\n    }\r\n\r\n    function getAll() external view returns (Message[] memory) {\r\n        return messages;\r\n    }\r\n\r\n    function getMsg(uint256 _index) public view returns (Message memory) {\r\n        return messages[_index];\r\n    }\r\n\r\n    function getOwner() public view returns (address) {\r\n        return owner;\r\n    }\r\n}\r\n",
  "sourcePath": "C:/Users/phernandez/Documents/blockchain-wall/contracts/CryptoWall.sol",
  "compiler": {
    "name": "solc",
    "version": "0.8.7+commit.e28d00a7.Emscripten.clang"
  },
  "schemaVersion": "3.2.3",
  "updatedAt": "2022-01-30T17:06:56.358Z",
  "networkType": "ethereum",
  "devdoc": {
    "kind": "dev",
    "methods": {},
    "version": 1
  },
  "userdoc": {
    "kind": "user",
    "methods": {},
    "version": 1
  }
}