{
  "contractName": "CryptoWall",
  "abi": [
    {
      "inputs": [],
      "payable": false,
      "stateMutability": "nonpayable",
      "type": "constructor"
    },
    {
      "constant": true,
      "inputs": [
        {
          "internalType": "address",
          "name": "",
          "type": "address"
        }
      ],
      "name": "messages",
      "outputs": [
        {
          "internalType": "string",
          "name": "",
          "type": "string"
        }
      ],
      "payable": false,
      "stateMutability": "view",
      "type": "function"
    },
    {
      "constant": true,
      "inputs": [],
      "name": "owner",
      "outputs": [
        {
          "internalType": "address",
          "name": "",
          "type": "address"
        }
      ],
      "payable": false,
      "stateMutability": "view",
      "type": "function"
    },
    {
      "constant": false,
      "inputs": [
        {
          "internalType": "string",
          "name": "_message",
          "type": "string"
        }
      ],
      "name": "setMsg",
      "outputs": [],
      "payable": false,
      "stateMutability": "nonpayable",
      "type": "function"
    },
    {
      "constant": true,
      "inputs": [
        {
          "internalType": "address",
          "name": "_address",
          "type": "address"
        }
      ],
      "name": "getMsg",
      "outputs": [
        {
          "internalType": "string",
          "name": "",
          "type": "string"
        }
      ],
      "payable": false,
      "stateMutability": "view",
      "type": "function"
    },
    {
      "constant": true,
      "inputs": [],
      "name": "getOwner",
      "outputs": [
        {
          "internalType": "address",
          "name": "",
          "type": "address"
        }
      ],
      "payable": false,
      "stateMutability": "view",
      "type": "function"
    }
  ],
  "bytecode": "0x608060405234801561001057600080fd5b50336000806101000a81548173ffffffffffffffffffffffffffffffffffffffff021916908373ffffffffffffffffffffffffffffffffffffffff160217905550610635806100606000396000f3fe608060405234801561001057600080fd5b50600436106100575760003560e01c8063428e2d641461005c5780635fdd59f814610119578063893d20e8146101d65780638da5cb5b14610220578063c4784fd41461026a575b600080fd5b61009e6004803603602081101561007257600080fd5b81019080803573ffffffffffffffffffffffffffffffffffffffff169060200190929190505050610325565b6040518080602001828103825283818151815260200191508051906020019080838360005b838110156100de5780820151818401526020810190506100c3565b50505050905090810190601f16801561010b5780820380516001836020036101000a031916815260200191505b509250505060405180910390f35b61015b6004803603602081101561012f57600080fd5b81019080803573ffffffffffffffffffffffffffffffffffffffff169060200190929190505050610406565b6040518080602001828103825283818151815260200191508051906020019080838360005b8381101561019b578082015181840152602081019050610180565b50505050905090810190601f1680156101c85780820380516001836020036101000a031916815260200191505b509250505060405180910390f35b6101de6104b6565b604051808273ffffffffffffffffffffffffffffffffffffffff1673ffffffffffffffffffffffffffffffffffffffff16815260200191505060405180910390f35b6102286104df565b604051808273ffffffffffffffffffffffffffffffffffffffff1673ffffffffffffffffffffffffffffffffffffffff16815260200191505060405180910390f35b6103236004803603602081101561028057600080fd5b810190808035906020019064010000000081111561029d57600080fd5b8201836020820111156102af57600080fd5b803590602001918460018302840111640100000000831117156102d157600080fd5b91908080601f016020809104026020016040519081016040528093929190818152602001838380828437600081840152601f19601f820116905080830192505050505050509192919290505050610504565b005b6060600160008373ffffffffffffffffffffffffffffffffffffffff1673ffffffffffffffffffffffffffffffffffffffff1681526020019081526020016000208054600181600116156101000203166002900480601f0160208091040260200160405190810160405280929190818152602001828054600181600116156101000203166002900480156103fa5780601f106103cf576101008083540402835291602001916103fa565b820191906000526020600020905b8154815290600101906020018083116103dd57829003601f168201915b50505050509050919050565b60016020528060005260406000206000915090508054600181600116156101000203166002900480601f0160208091040260200160405190810160405280929190818152602001828054600181600116156101000203166002900480156104ae5780601f10610483576101008083540402835291602001916104ae565b820191906000526020600020905b81548152906001019060200180831161049157829003601f168201915b505050505081565b60008060009054906101000a900473ffffffffffffffffffffffffffffffffffffffff16905090565b6000809054906101000a900473ffffffffffffffffffffffffffffffffffffffff1681565b80600160003373ffffffffffffffffffffffffffffffffffffffff1673ffffffffffffffffffffffffffffffffffffffff168152602001908152602001600020908051906020019061055792919061055b565b5050565b828054600181600116156101000203166002900490600052602060002090601f016020900481019282601f1061059c57805160ff19168380011785556105ca565b828001600101855582156105ca579182015b828111156105c95782518255916020019190600101906105ae565b5b5090506105d791906105db565b5090565b6105fd91905b808211156105f95760008160009055506001016105e1565b5090565b9056fea265627a7a72315820168e63dd8735e2259d58c600f50e03560aec80a7e418f029b34dd9d0ca0cbbaf64736f6c63430005100032",
  "source": "// SPDX-License-Identifier: MIT\r\npragma solidity >0.5.0;\r\n\r\ncontract CryptoWall {\r\n    address public owner;\r\n    mapping(address => string) public messages;\r\n\r\n    constructor() public {\r\n        owner = msg.sender;\r\n    }\r\n\r\n    function setMsg(string memory _message) public {\r\n        messages[msg.sender] = _message;\r\n    }\r\n\r\n    function getMsg(address _address) public view returns (string memory) {\r\n        return messages[_address];\r\n    }\r\n\r\n    function getOwner() public view returns (address) {\r\n        return owner;\r\n    }\r\n}\r\n",
  "sourcePath": "C:/Users/phernandez/Documents/blockchain-wall/contracts/CryptoWall.sol",
  "compiler": {
    "name": "solc",
    "version": "0.5.16+commit.9c3226ce.Emscripten.clang"
  },
  "schemaVersion": "3.2.3",
  "updatedAt": "2021-12-31T00:37:19.274Z",
  "networkType": "ethereum",
  "devdoc": {
    "methods": {}
  },
  "userdoc": {
    "methods": {}
  }
}